{
    "_format": "hh-sol-artifact-1",
    "contractName": "MedicalRecordsConsent",
    "sourceName": "contracts/MedicalRecordsConsent.sol",
    "abi": [
        {
            "anonymous": false,
            "inputs": [
                {
                    "indexed": true,
                    "internalType": "address",
                    "name": "patient",
                    "type": "address"
                },
                {
                    "indexed": true,
                    "internalType": "address",
                    "name": "doctor",
                    "type": "address"
                },
                {
                    "indexed": false,
                    "internalType": "uint256",
                    "name": "expiry",
                    "type": "uint256"
                }
            ],
            "name": "AccessGranted",
            "type": "event"
        },
        {
            "anonymous": false,
            "inputs": [
                {
                    "indexed": true,
                    "internalType": "address",
                    "name": "doctor",
                    "type": "address"
                },
                {
                    "indexed": true,
                    "internalType": "address",
                    "name": "patient",
                    "type": "address"
                }
            ],
            "name": "AccessRequested",
            "type": "event"
        },
        {
            "anonymous": false,
            "inputs": [
                {
                    "indexed": true,
                    "internalType": "address",
                    "name": "patient",
                    "type": "address"
                },
                {
                    "indexed": true,
                    "internalType": "address",
                    "name": "doctor",
                    "type": "address"
                }
            ],
            "name": "AccessRevoked",
            "type": "event"
        },
        {
            "anonymous": false,
            "inputs": [
                {
                    "indexed": true,
                    "internalType": "address",
                    "name": "patient",
                    "type": "address"
                },
                {
                    "indexed": true,
                    "internalType": "address",
                    "name": "staff",
                    "type": "address"
                },
                {
                    "indexed": false,
                    "internalType": "string",
                    "name": "cid",
                    "type": "string"
                }
            ],
            "name": "RecordUploaded",
            "type": "event"
        },
        {
            "inputs": [
                {
                    "internalType": "address",
                    "name": "",
                    "type": "address"
                },
                {
                    "internalType": "address",
                    "name": "",
                    "type": "address"
                }
            ],
            "name": "accessPermissions",
            "outputs": [
                {
                    "internalType": "bool",
                    "name": "isAllowed",
                    "type": "bool"
                },
                {
                    "internalType": "uint256",
                    "name": "expiry",
                    "type": "uint256"
                }
            ],
            "stateMutability": "view",
            "type": "function"
        },
        {
            "inputs": [
                {
                    "internalType": "address",
                    "name": "doctor",
                    "type": "address"
                },
                {
                    "internalType": "uint256",
                    "name": "durationInSeconds",
                    "type": "uint256"
                }
            ],
            "name": "approveRequest",
            "outputs": [],
            "stateMutability": "nonpayable",
            "type": "function"
        },
        {
            "inputs": [],
            "name": "getMyRecords",
            "outputs": [
                {
                    "internalType": "string[]",
                    "name": "",
                    "type": "string[]"
                }
            ],
            "stateMutability": "view",
            "type": "function"
        },
        {
            "inputs": [
                {
                    "internalType": "address",
                    "name": "patient",
                    "type": "address"
                }
            ],
            "name": "getPatientRecords",
            "outputs": [
                {
                    "internalType": "string[]",
                    "name": "",
                    "type": "string[]"
                }
            ],
            "stateMutability": "view",
            "type": "function"
        },
        {
            "inputs": [],
            "name": "getPendingRequests",
            "outputs": [
                {
                    "internalType": "address[]",
                    "name": "",
                    "type": "address[]"
                }
            ],
            "stateMutability": "view",
            "type": "function"
        },
        {
            "inputs": [
                {
                    "internalType": "address",
                    "name": "",
                    "type": "address"
                },
                {
                    "internalType": "address",
                    "name": "",
                    "type": "address"
                }
            ],
            "name": "hasPendingRequest",
            "outputs": [
                {
                    "internalType": "bool",
                    "name": "",
                    "type": "bool"
                }
            ],
            "stateMutability": "view",
            "type": "function"
        },
        {
            "inputs": [
                {
                    "internalType": "address",
                    "name": "",
                    "type": "address"
                },
                {
                    "internalType": "uint256",
                    "name": "",
                    "type": "uint256"
                }
            ],
            "name": "patientRecords",
            "outputs": [
                {
                    "internalType": "string",
                    "name": "",
                    "type": "string"
                }
            ],
            "stateMutability": "view",
            "type": "function"
        },
        {
            "inputs": [
                {
                    "internalType": "address",
                    "name": "",
                    "type": "address"
                },
                {
                    "internalType": "uint256",
                    "name": "",
                    "type": "uint256"
                }
            ],
            "name": "pendingRequests",
            "outputs": [
                {
                    "internalType": "address",
                    "name": "",
                    "type": "address"
                }
            ],
            "stateMutability": "view",
            "type": "function"
        },
        {
            "inputs": [],
            "name": "registerAsDoctor",
            "outputs": [],
            "stateMutability": "nonpayable",
            "type": "function"
        },
        {
            "inputs": [],
            "name": "registerAsPatient",
            "outputs": [],
            "stateMutability": "nonpayable",
            "type": "function"
        },
        {
            "inputs": [],
            "name": "registerAsStaff",
            "outputs": [],
            "stateMutability": "nonpayable",
            "type": "function"
        },
        {
            "inputs": [
                {
                    "internalType": "address",
                    "name": "patient",
                    "type": "address"
                }
            ],
            "name": "requestAccess",
            "outputs": [],
            "stateMutability": "nonpayable",
            "type": "function"
        },
        {
            "inputs": [
                {
                    "internalType": "address",
                    "name": "doctor",
                    "type": "address"
                }
            ],
            "name": "revokeAccess",
            "outputs": [],
            "stateMutability": "nonpayable",
            "type": "function"
        },
        {
            "inputs": [
                {
                    "internalType": "address",
                    "name": "",
                    "type": "address"
                }
            ],
            "name": "roles",
            "outputs": [
                {
                    "internalType": "enum MedicalRecordsConsent.Role",
                    "name": "",
                    "type": "uint8"
                }
            ],
            "stateMutability": "view",
            "type": "function"
        },
        {
            "inputs": [
                {
                    "internalType": "string",
                    "name": "cid",
                    "type": "string"
                }
            ],
            "name": "uploadRecordByPatient",
            "outputs": [],
            "stateMutability": "nonpayable",
            "type": "function"
        },
        {
            "inputs": [
                {
                    "internalType": "address",
                    "name": "patient",
                    "type": "address"
                },
                {
                    "internalType": "string",
                    "name": "cid",
                    "type": "string"
                }
            ],
            "name": "uploadRecordByStaff",
            "outputs": [],
            "stateMutability": "nonpayable",
            "type": "function"
        }
    ],
    "bytecode": "0x608060405234801561001057600080fd5b5061299a806100206000396000f3fe608060405234801561001057600080fd5b50600436106101005760003560e01c806380a1f71211610097578063993746421161006657806399374642146102aa578063a99ad4ee146102da578063c5fc26bc146102e4578063e76637ce146102ee57610100565b806380a1f712146102245780638207997c1461024257806385e685311461025e57806394f0df611461027a57610100565b8063488ff1c8116100d3578063488ff1c81461019d57806364b3b525146101cd5780636ba7fe7f146101fe57806370cf7dda1461020857610100565b8063022cb2711461010557806318bd4847146101215780633e3328e21461015157806347ad8c871461016d575b600080fd5b61011f600480360381019061011a9190611bc3565b61030c565b005b61013b60048036038101906101369190611bc3565b6106ce565b6040516101489190611d42565b60405180910390f35b61016b60048036038101906101669190611d9a565b6109d6565b005b61018760048036038101906101829190611dda565b610c9d565b6040516101949190611e35565b60405180910390f35b6101b760048036038101906101b29190611d9a565b610ccc565b6040516101c49190611e5f565b60405180910390f35b6101e760048036038101906101e29190611dda565b610d1a565b6040516101f5929190611e89565b60405180910390f35b610206610d58565b005b610222600480360381019061021d9190611f17565b610dc1565b005b61022c61100d565b6040516102399190612022565b60405180910390f35b61025c60048036038101906102579190612044565b61118c565b005b61027860048036038101906102739190611bc3565b6113d9565b005b610294600480360381019061028f9190611d9a565b611582565b6040516102a191906120ee565b60405180910390f35b6102c460048036038101906102bf9190611bc3565b61163b565b6040516102d19190612187565b60405180910390f35b6102e261165b565b005b6102ec6116c4565b005b6102f661172d565b6040516103039190611d42565b60405180910390f35b600280600381111561032157610320612110565b5b6000803373ffffffffffffffffffffffffffffffffffffffff1673ffffffffffffffffffffffffffffffffffffffff16815260200190815260200160002060009054906101000a900460ff16600381111561037f5761037e612110565b5b146103bf576040517f08c379a00000000000000000000000000000000000000000000000000000000081526004016103b6906121ee565b60405180910390fd5b600160038111156103d3576103d2612110565b5b6000808473ffffffffffffffffffffffffffffffffffffffff1673ffffffffffffffffffffffffffffffffffffffff16815260200190815260200160002060009054906101000a900460ff16600381111561043157610430612110565b5b14610471576040517f08c379a00000000000000000000000000000000000000000000000000000000081526004016104689061225a565b60405180910390fd5b600460008373ffffffffffffffffffffffffffffffffffffffff1673ffffffffffffffffffffffffffffffffffffffff16815260200190815260200160002060003373ffffffffffffffffffffffffffffffffffffffff1673ffffffffffffffffffffffffffffffffffffffff16815260200190815260200160002060009054906101000a900460ff161561053b576040517f08c379a0000000000000000000000000000000000000000000000000000000008152600401610532906122c6565b60405180910390fd5b600360008373ffffffffffffffffffffffffffffffffffffffff1673ffffffffffffffffffffffffffffffffffffffff168152602001908152602001600020339080600181540180825580915050600190039060005260206000200160009091909190916101000a81548173ffffffffffffffffffffffffffffffffffffffff021916908373ffffffffffffffffffffffffffffffffffffffff1602179055506001600460008473ffffffffffffffffffffffffffffffffffffffff1673ffffffffffffffffffffffffffffffffffffffff16815260200190815260200160002060003373ffffffffffffffffffffffffffffffffffffffff1673ffffffffffffffffffffffffffffffffffffffff16815260200190815260200160002060006101000a81548160ff0219169083151502179055508173ffffffffffffffffffffffffffffffffffffffff163373ffffffffffffffffffffffffffffffffffffffff167f40c7749b16fdfb0d550f20273a7767875059d647af94f5a9610c63ad73dcc79f60405160405180910390a35050565b606060028060038111156106e5576106e4612110565b5b6000803373ffffffffffffffffffffffffffffffffffffffff1673ffffffffffffffffffffffffffffffffffffffff16815260200190815260200160002060009054906101000a900460ff16600381111561074357610742612110565b5b14610783576040517f08c379a000000000000000000000000000000000000000000000000000000000815260040161077a906121ee565b60405180910390fd5b6000600260008573ffffffffffffffffffffffffffffffffffffffff1673ffffffffffffffffffffffffffffffffffffffff16815260200190815260200160002060003373ffffffffffffffffffffffffffffffffffffffff1673ffffffffffffffffffffffffffffffffffffffff1681526020019081526020016000206040518060400160405290816000820160009054906101000a900460ff1615151515815260200160018201548152505090508060000151610877576040517f08c379a000000000000000000000000000000000000000000000000000000000815260040161086e90612332565b60405180910390fd5b80602001514211156108be576040517f08c379a00000000000000000000000000000000000000000000000000000000081526004016108b59061239e565b60405180910390fd5b600160008573ffffffffffffffffffffffffffffffffffffffff1673ffffffffffffffffffffffffffffffffffffffff168152602001908152602001600020805480602002602001604051908101604052809291908181526020016000905b828210156109c957838290600052602060002001805461093c906123ed565b80601f0160208091040260200160405190810160405280929190818152602001828054610968906123ed565b80156109b55780601f1061098a576101008083540402835291602001916109b5565b820191906000526020600020905b81548152906001019060200180831161099857829003601f168201915b50505050508152602001906001019061091d565b5050505092505050919050565b60018060038111156109eb576109ea612110565b5b6000803373ffffffffffffffffffffffffffffffffffffffff1673ffffffffffffffffffffffffffffffffffffffff16815260200190815260200160002060009054906101000a900460ff166003811115610a4957610a48612110565b5b14610a89576040517f08c379a0000000000000000000000000000000000000000000000000000000008152600401610a80906121ee565b60405180910390fd5b600460003373ffffffffffffffffffffffffffffffffffffffff1673ffffffffffffffffffffffffffffffffffffffff16815260200190815260200160002060008473ffffffffffffffffffffffffffffffffffffffff1673ffffffffffffffffffffffffffffffffffffffff16815260200190815260200160002060009054906101000a900460ff16610b52576040517f08c379a0000000000000000000000000000000000000000000000000000000008152600401610b499061246a565b60405180910390fd5b60405180604001604052806001151581526020018342610b7291906124b9565b815250600260003373ffffffffffffffffffffffffffffffffffffffff1673ffffffffffffffffffffffffffffffffffffffff16815260200190815260200160002060008573ffffffffffffffffffffffffffffffffffffffff1673ffffffffffffffffffffffffffffffffffffffff16815260200190815260200160002060008201518160000160006101000a81548160ff02191690831515021790555060208201518160010155905050610c2833846118f7565b8273ffffffffffffffffffffffffffffffffffffffff163373ffffffffffffffffffffffffffffffffffffffff167f65d0cc1e52d49938ca4ad9f423c79c1b84d914b9a683fbc5d3f93ac3cc5635f58442610c8391906124b9565b604051610c9091906124ed565b60405180910390a3505050565b60046020528160005260406000206020528060005260406000206000915091509054906101000a900460ff1681565b60036020528160005260406000208181548110610ce857600080fd5b906000526020600020016000915091509054906101000a900473ffffffffffffffffffffffffffffffffffffffff1681565b6002602052816000526040600020602052806000526040600020600091509150508060000160009054906101000a900460ff16908060010154905082565b60026000803373ffffffffffffffffffffffffffffffffffffffff1673ffffffffffffffffffffffffffffffffffffffff16815260200190815260200160002060006101000a81548160ff02191690836003811115610dba57610db9612110565b5b0217905550565b6001806003811115610dd657610dd5612110565b5b6000803373ffffffffffffffffffffffffffffffffffffffff1673ffffffffffffffffffffffffffffffffffffffff16815260200190815260200160002060009054906101000a900460ff166003811115610e3457610e33612110565b5b14610e74576040517f08c379a0000000000000000000000000000000000000000000000000000000008152600401610e6b906121ee565b60405180910390fd5b60016003811115610e8857610e87612110565b5b6000803373ffffffffffffffffffffffffffffffffffffffff1673ffffffffffffffffffffffffffffffffffffffff16815260200190815260200160002060009054906101000a900460ff166003811115610ee657610ee5612110565b5b14610f26576040517f08c379a0000000000000000000000000000000000000000000000000000000008152600401610f1d90612554565b60405180910390fd5b600160003373ffffffffffffffffffffffffffffffffffffffff1673ffffffffffffffffffffffffffffffffffffffff168152602001908152602001600020838390918060018154018082558091505060019003906000526020600020016000909192909192909192909192509182610fa092919061275a565b503373ffffffffffffffffffffffffffffffffffffffff163373ffffffffffffffffffffffffffffffffffffffff167fe6d615acf54736ffca7532772615005f30a970cf028f6ea39b7ed223099535608585604051611000929190612866565b60405180910390a3505050565b6060600180600381111561102457611023612110565b5b6000803373ffffffffffffffffffffffffffffffffffffffff1673ffffffffffffffffffffffffffffffffffffffff16815260200190815260200160002060009054906101000a900460ff16600381111561108257611081612110565b5b146110c2576040517f08c379a00000000000000000000000000000000000000000000000000000000081526004016110b9906121ee565b60405180910390fd5b600360003373ffffffffffffffffffffffffffffffffffffffff1673ffffffffffffffffffffffffffffffffffffffff16815260200190815260200160002080548060200260200160405190810160405280929190818152602001828054801561118157602002820191906000526020600020905b8160009054906101000a900473ffffffffffffffffffffffffffffffffffffffff1673ffffffffffffffffffffffffffffffffffffffff1681526020019060010190808311611137575b505050505091505090565b60038060038111156111a1576111a0612110565b5b6000803373ffffffffffffffffffffffffffffffffffffffff1673ffffffffffffffffffffffffffffffffffffffff16815260200190815260200160002060009054906101000a900460ff1660038111156111ff576111fe612110565b5b1461123f576040517f08c379a0000000000000000000000000000000000000000000000000000000008152600401611236906121ee565b60405180910390fd5b6001600381111561125357611252612110565b5b6000808673ffffffffffffffffffffffffffffffffffffffff1673ffffffffffffffffffffffffffffffffffffffff16815260200190815260200160002060009054906101000a900460ff1660038111156112b1576112b0612110565b5b146112f1576040517f08c379a00000000000000000000000000000000000000000000000000000000081526004016112e890612554565b60405180910390fd5b600160008573ffffffffffffffffffffffffffffffffffffffff1673ffffffffffffffffffffffffffffffffffffffff16815260200190815260200160002083839091806001815401808255809150506001900390600052602060002001600090919290919290919290919250918261136b92919061275a565b503373ffffffffffffffffffffffffffffffffffffffff168473ffffffffffffffffffffffffffffffffffffffff167fe6d615acf54736ffca7532772615005f30a970cf028f6ea39b7ed2230995356085856040516113cb929190612866565b60405180910390a350505050565b60018060038111156113ee576113ed612110565b5b6000803373ffffffffffffffffffffffffffffffffffffffff1673ffffffffffffffffffffffffffffffffffffffff16815260200190815260200160002060009054906101000a900460ff16600381111561144c5761144b612110565b5b1461148c576040517f08c379a0000000000000000000000000000000000000000000000000000000008152600401611483906121ee565b60405180910390fd5b6000600260003373ffffffffffffffffffffffffffffffffffffffff1673ffffffffffffffffffffffffffffffffffffffff16815260200190815260200160002060008473ffffffffffffffffffffffffffffffffffffffff1673ffffffffffffffffffffffffffffffffffffffff16815260200190815260200160002060000160006101000a81548160ff0219169083151502179055508173ffffffffffffffffffffffffffffffffffffffff163373ffffffffffffffffffffffffffffffffffffffff167f825c8be24eb0df19500f63e86c29e7d0d951e73056b889b891d85e40938d9b6e60405160405180910390a35050565b6001602052816000526040600020818154811061159e57600080fd5b906000526020600020016000915091505080546115ba906123ed565b80601f01602080910402602001604051908101604052809291908181526020018280546115e6906123ed565b80156116335780601f1061160857610100808354040283529160200191611633565b820191906000526020600020905b81548152906001019060200180831161161657829003601f168201915b505050505081565b60006020528060005260406000206000915054906101000a900460ff1681565b60016000803373ffffffffffffffffffffffffffffffffffffffff1673ffffffffffffffffffffffffffffffffffffffff16815260200190815260200160002060006101000a81548160ff021916908360038111156116bd576116bc612110565b5b0217905550565b60036000803373ffffffffffffffffffffffffffffffffffffffff1673ffffffffffffffffffffffffffffffffffffffff16815260200190815260200160002060006101000a81548160ff0219169083600381111561172657611725612110565b5b0217905550565b6060600180600381111561174457611743612110565b5b6000803373ffffffffffffffffffffffffffffffffffffffff1673ffffffffffffffffffffffffffffffffffffffff16815260200190815260200160002060009054906101000a900460ff1660038111156117a2576117a1612110565b5b146117e2576040517f08c379a00000000000000000000000000000000000000000000000000000000081526004016117d9906121ee565b60405180910390fd5b600160003373ffffffffffffffffffffffffffffffffffffffff1673ffffffffffffffffffffffffffffffffffffffff168152602001908152602001600020805480602002602001604051908101604052809291908181526020016000905b828210156118ed578382906000526020600020018054611860906123ed565b80601f016020809104026020016040519081016040528092919081815260200182805461188c906123ed565b80156118d95780601f106118ae576101008083540402835291602001916118d9565b820191906000526020600020905b8154815290600101906020018083116118bc57829003601f168201915b505050505081526020019060010190611841565b5050505091505090565b6000600360008473ffffffffffffffffffffffffffffffffffffffff1673ffffffffffffffffffffffffffffffffffffffff168152602001908152602001600020905060005b8180549050811015611ac0578273ffffffffffffffffffffffffffffffffffffffff168282815481106119735761197261288a565b5b9060005260206000200160009054906101000a900473ffffffffffffffffffffffffffffffffffffffff1673ffffffffffffffffffffffffffffffffffffffff1603611aad5781600183805490506119cb91906128b9565b815481106119dc576119db61288a565b5b9060005260206000200160009054906101000a900473ffffffffffffffffffffffffffffffffffffffff16828281548110611a1a57611a1961288a565b5b9060005260206000200160006101000a81548173ffffffffffffffffffffffffffffffffffffffff021916908373ffffffffffffffffffffffffffffffffffffffff16021790555081805480611a7357611a726128ed565b5b6001900381819060005260206000200160006101000a81549073ffffffffffffffffffffffffffffffffffffffff02191690559055611ac0565b8080611ab89061291c565b91505061193d565b506000600460008573ffffffffffffffffffffffffffffffffffffffff1673ffffffffffffffffffffffffffffffffffffffff16815260200190815260200160002060008473ffffffffffffffffffffffffffffffffffffffff1673ffffffffffffffffffffffffffffffffffffffff16815260200190815260200160002060006101000a81548160ff021916908315150217905550505050565b600080fd5b600080fd5b600073ffffffffffffffffffffffffffffffffffffffff82169050919050565b6000611b9082611b65565b9050919050565b611ba081611b85565b8114611bab57600080fd5b50565b600081359050611bbd81611b97565b92915050565b600060208284031215611bd957611bd8611b5b565b5b6000611be784828501611bae565b91505092915050565b600081519050919050565b600082825260208201905092915050565b6000819050602082019050919050565b600081519050919050565b600082825260208201905092915050565b60005b83811015611c56578082015181840152602081019050611c3b565b60008484015250505050565b6000601f19601f8301169050919050565b6000611c7e82611c1c565b611c888185611c27565b9350611c98818560208601611c38565b611ca181611c62565b840191505092915050565b6000611cb88383611c73565b905092915050565b6000602082019050919050565b6000611cd882611bf0565b611ce28185611bfb565b935083602082028501611cf485611c0c565b8060005b85811015611d305784840389528151611d118582611cac565b9450611d1c83611cc0565b925060208a01995050600181019050611cf8565b50829750879550505050505092915050565b60006020820190508181036000830152611d5c8184611ccd565b905092915050565b6000819050919050565b611d7781611d64565b8114611d8257600080fd5b50565b600081359050611d9481611d6e565b92915050565b60008060408385031215611db157611db0611b5b565b5b6000611dbf85828601611bae565b9250506020611dd085828601611d85565b9150509250929050565b60008060408385031215611df157611df0611b5b565b5b6000611dff85828601611bae565b9250506020611e1085828601611bae565b9150509250929050565b60008115159050919050565b611e2f81611e1a565b82525050565b6000602082019050611e4a6000830184611e26565b92915050565b611e5981611b85565b82525050565b6000602082019050611e746000830184611e50565b92915050565b611e8381611d64565b82525050565b6000604082019050611e9e6000830185611e26565b611eab6020830184611e7a565b9392505050565b600080fd5b600080fd5b600080fd5b60008083601f840112611ed757611ed6611eb2565b5b8235905067ffffffffffffffff811115611ef457611ef3611eb7565b5b602083019150836001820283011115611f1057611f0f611ebc565b5b9250929050565b60008060208385031215611f2e57611f2d611b5b565b5b600083013567ffffffffffffffff811115611f4c57611f4b611b60565b5b611f5885828601611ec1565b92509250509250929050565b600081519050919050565b600082825260208201905092915050565b6000819050602082019050919050565b611f9981611b85565b82525050565b6000611fab8383611f90565b60208301905092915050565b6000602082019050919050565b6000611fcf82611f64565b611fd98185611f6f565b9350611fe483611f80565b8060005b83811015612015578151611ffc8882611f9f565b975061200783611fb7565b925050600181019050611fe8565b5085935050505092915050565b6000602082019050818103600083015261203c8184611fc4565b905092915050565b60008060006040848603121561205d5761205c611b5b565b5b600061206b86828701611bae565b935050602084013567ffffffffffffffff81111561208c5761208b611b60565b5b61209886828701611ec1565b92509250509250925092565b600082825260208201905092915050565b60006120c082611c1c565b6120ca81856120a4565b93506120da818560208601611c38565b6120e381611c62565b840191505092915050565b6000602082019050818103600083015261210881846120b5565b905092915050565b7f4e487b7100000000000000000000000000000000000000000000000000000000600052602160045260246000fd5b600481106121505761214f612110565b5b50565b60008190506121618261213f565b919050565b600061217182612153565b9050919050565b61218181612166565b82525050565b600060208201905061219c6000830184612178565b92915050565b7f4163636573732064656e6965643a20496e76616c696420726f6c650000000000600082015250565b60006121d8601b836120a4565b91506121e3826121a2565b602082019050919050565b60006020820190508181036000830152612207816121cb565b9050919050565b7f496e76616c69642070617469656e740000000000000000000000000000000000600082015250565b6000612244600f836120a4565b915061224f8261220e565b602082019050919050565b6000602082019050818103600083015261227381612237565b9050919050565b7f5265717565737420616c72656164792073656e74000000000000000000000000600082015250565b60006122b06014836120a4565b91506122bb8261227a565b602082019050919050565b600060208201905081810360008301526122df816122a3565b9050919050565b7f416363657373206e6f74206772616e7465642062792070617469656e74000000600082015250565b600061231c601d836120a4565b9150612327826122e6565b602082019050919050565b6000602082019050818103600083015261234b8161230f565b9050919050565b7f4163636573732065787069726564000000000000000000000000000000000000600082015250565b6000612388600e836120a4565b915061239382612352565b602082019050919050565b600060208201905081810360008301526123b78161237b565b9050919050565b7f4e487b7100000000000000000000000000000000000000000000000000000000600052602260045260246000fd5b6000600282049050600182168061240557607f821691505b602082108103612418576124176123be565b5b50919050565b7f4e6f2070656e64696e6720726571756573742066726f6d20646f63746f720000600082015250565b6000612454601e836120a4565b915061245f8261241e565b602082019050919050565b6000602082019050818103600083015261248381612447565b9050919050565b7f4e487b7100000000000000000000000000000000000000000000000000000000600052601160045260246000fd5b60006124c482611d64565b91506124cf83611d64565b92508282019050808211156124e7576124e661248a565b5b92915050565b60006020820190506125026000830184611e7a565b92915050565b7f4e6f74206120726567697374657265642070617469656e740000000000000000600082015250565b600061253e6018836120a4565b915061254982612508565b602082019050919050565b6000602082019050818103600083015261256d81612531565b9050919050565b600082905092915050565b7f4e487b7100000000000000000000000000000000000000000000000000000000600052604160045260246000fd5b60008190508160005260206000209050919050565b60006020601f8301049050919050565b600082821b905092915050565b6000600883026126107fffffffffffffffffffffffffffffffffffffffffffffffffffffffffffffffff826125d3565b61261a86836125d3565b95508019841693508086168417925050509392505050565b6000819050919050565b600061265761265261264d84611d64565b612632565b611d64565b9050919050565b6000819050919050565b6126718361263c565b61268561267d8261265e565b8484546125e0565b825550505050565b600090565b61269a61268d565b6126a5818484612668565b505050565b5b818110156126c9576126be600082612692565b6001810190506126ab565b5050565b601f82111561270e576126df816125ae565b6126e8846125c3565b810160208510156126f7578190505b61270b612703856125c3565b8301826126aa565b50505b505050565b600082821c905092915050565b600061273160001984600802612713565b1980831691505092915050565b600061274a8383612720565b9150826002028217905092915050565b6127648383612574565b67ffffffffffffffff81111561277d5761277c61257f565b5b61278782546123ed565b6127928282856126cd565b6000601f8311600181146127c157600084156127af578287013590505b6127b9858261273e565b865550612821565b601f1984166127cf866125ae565b60005b828110156127f7578489013582556001820191506020850194506020810190506127d2565b868310156128145784890135612810601f891682612720565b8355505b6001600288020188555050505b50505050505050565b82818337600083830152505050565b600061284583856120a4565b935061285283858461282a565b61285b83611c62565b840190509392505050565b60006020820190508181036000830152612881818486612839565b90509392505050565b7f4e487b7100000000000000000000000000000000000000000000000000000000600052603260045260246000fd5b60006128c482611d64565b91506128cf83611d64565b92508282039050818111156128e7576128e661248a565b5b92915050565b7f4e487b7100000000000000000000000000000000000000000000000000000000600052603160045260246000fd5b600061292782611d64565b91507fffffffffffffffffffffffffffffffffffffffffffffffffffffffffffffffff82036129595761295861248a565b5b60018201905091905056fea2646970667358221220a78e643f95b504526e3fd94f78b934b2d1d5c9fe71cf68db9f0ed1664879a04c64736f6c63430008120033",
    "linkReferences": {},
    "deployedLinkReferences": {}
}